:0600000000F027EF05F0FF
:0D060000004C616233204D617263470000C1
:10060E00FFFF400E62EC03F0000E0001AC6F070E10
:10061E000001AC6515EF03F018EF03F0FFFF1BEFC1
:10062E0003F0FFFF5DEF03F0FFFF000E0001AD6F63
:10063E00070E0001AD6526EF03F029EF03F0FFFF73
:10064E002CEF03F0FFFF50EF03F0FFFF0001AC5162
:10065E00080D600EF3240001AA6F000EF420AB6F9C
:10066E000001AD510001AA25D96E0001000E000156
:10067E00AB21DA6EDF50D9EC04F00001AD2B070E82
:10068E000001AD654DEF03F050EF03F0FFFF2CEFCF
:10069E0003F0FFFF0001AC2B070E0001AC655AEF13
:1006AE0003F05DEF03F0FFFF1BEF03F0FFFF8BEC9A
:1006BE0005F01200FFFFFFFF0001A96F67EC04F0C9
:1006CE00000E926E00D000D000D000D08198809A9B
:1006DE000001A9390F0B2BEC04F091EC05F000D0C2
:1006EE0000D000D000D00001A9512BEC04F091EC09
:1006FE0005F0280EFFFFE82EFDD70001A905D8B49E
:10070E008BEF03F08EEF03F0FFFF9AEF03F0FFFF86
:10071E00020E0001A919D8A497EF03F09AEF03F087
:10072E00FFFFA5EF03F0FFFF080E0001A86FCB0E31
:10073E00FFFFE82EFDD7A82FFBD700F0FFFF0F0E0F
:10074E00926E00D000D000D000D067EC04F0120002
:10075E00FFFFFFFF000E0001B26FCEEF03F0FFFFB1
:10076E000001B2510001AE250001B06F000E000174
:10077E00AF210001B16FB0C0F6FFB1C0F7FFF86A4C
:10078E000800FFFFF550EEEC03F00001B22BFFFF67
:10079E000001B2510001AE250001B06F000E000144
:1007AE00AF210001B16FB0C0F6FFB1C0F7FFF86A1C
:1007BE000800FFFFF5500009D8A4E8EF03F0EBEFB7
:1007CE0003F0FFFFB6EF03F0FFFF1200FFFFFFFF86
:1007DE000001AC6F0001AC51D9EC04F00001AD6F1B
:1007EE000BEF04F0FFFFC00E62EC03F028EF04F0F5
:1007FE00FFFF940E62EC03F028EF04F0FFFFD40E1F
:10080E0062EC03F028EF04F0FFFF0001AD51000190
:10081E00AA6FAB6BAB51000AD8B418EF04F028EFF7
:10082E0004F0FFFFAA51140AD8B4F9EF03F0540AEA
:10083E00D8B405EF04F0140AD8B4FFEF03F028EF94
:10084E0004F0FFFF1200FFFFFFFF0001A56FA5C020
:10085E00A4F0010E0001A4178050A419FE0BA419D8
:10086E00806EA5C0A4F0D890A433010EA417A4479F
:10087E008050A419FD0BA419806EA5C0A4F0D890C9
:10088E00A433D890A433010EA417A447A4478050D4
:10089E00A419FB0BA419806EA5C0A4F0D890A433A4
:1008AE00D890A433D890A433010EA417A447A4471C
:1008BE00A4478050A419F70BA419806E1200FFFFF5
:1008CE00FFFF8198808AFFFF808800F097EC05F08B
:1008DE000001A46FA56BA43BA53BF00EA517A45178
:1008EE000F0BA513F00EA417A4C0A6F0A5C0A7F079
:1008FE00809800D000D000D000D0808800F097EC17
:10090E0005F00001A46FA4510001A613809800D039
:10091E0000D000D000D00001A6BF98EF04F09BEFEE
:10092E0004F0FFFF6AEF04F0FFFF809A0001A6516A
:10093E007F0B1200FFFFFFFF000E926E9C0E000158
:10094E00A66FF10EFFFFE82EFDD7A62FFBD700F006
:10095E008198809A030E2BEC04F091EC05F0280E92
:10096E00FFFFE82EFDD7030E2BEC04F091EC05F003
:10097E00280EFFFFE82EFDD7030E2BEC04F091ECB2
:10098E0005F0280EFFFFE82EFDD7020E2BEC04F02B
:10099E0091EC05F0280EFFFFE82EFDD70F0E926E9C
:1009AE001200FFFFFFFF0001A86F67EC04F0000EBE
:1009BE00926E00D000D000D000D08188809A0001C5
:1009CE00A8390F0B2BEC04F091EC05F000D000D001
:1009DE0000D000D00001A8512BEC04F091EC05F0F2
:1009EE0000D000D000D000D00F0E926E00D000D0FC
:1009FE0000D000D067EC04F01200FFFF0804040AD8
:100A0E00111F110002040E111F100E0002041F1000
:100A1E001E101F0008040E111F100E0008041F10D8
:100A2E001E101F00040A0E111F100E0008040E01E6
:100A3E000F110F00040A0E010F110F000102030423
:100A4E000A0EF66E0A0EF76E000EF86E00EE60F0ED
:100A5E0010EE44F00900F5CFEEFFE550E150FAE15B
:100A6E000001B86BB76BB66BB56BB46BB36B0001B3
:100A7E005AEF05F0FFFF9350EF0B936EA2EC04F0CC
:100A8E00280E62EC03F00F0E62EC03F0010E62EC26
:100A9E0003F0060E62EC03F0800E62EC03F007EC3E
:100AAE0003F01200FFFFFFFF6DEC05F07FEC05F089
:100ABE0041EC05F0010E0001AE6F060EAF6FB0EC0B
:100ACE0003F0FFFF68EF05F001EF00F0FFFF000EEF
:100ADE00956E000E946E010E936E070EC16EF28E21
:100AEE00F292F288F19CF086F090F19A1200FFFFDC
:100AFE00FFFF948E948C190EAF6EAC94AB8EAC98A7
:100B0E00AB88AC8A1200FFFFFFFF020E62EC03F00F
:100B1E001200FFFFFFFF808800F080981200FFFF99
:0C0B2E00FFFF80500F0B1200FFFFFFFFC5
:020000040020DA
:08000000FFFFFFFFFFFFFFFF00
:020000040030CA
:04000000FF220D0EC0
:0800060080FF0FC00FE00F4066
:00000001FF
